{
    "contractName": "LuckyBall",
    "abi": [
        {
            "inputs": [
                {
                    "internalType": "uint64",
                    "name": "subscriptionId",
                    "type": "uint64"
                },
                {
                    "internalType": "address",
                    "name": "vrfCoordinator",
                    "type": "address"
                },
                {
                    "internalType": "bytes32",
                    "name": "keyHash",
                    "type": "bytes32"
                }
            ],
            "stateMutability": "nonpayable",
            "type": "constructor"
        },
        {
            "inputs": [
                {
                    "internalType": "address",
                    "name": "have",
                    "type": "address"
                },
                {
                    "internalType": "address",
                    "name": "want",
                    "type": "address"
                }
            ],
            "name": "OnlyCoordinatorCanFulfill",
            "type": "error"
        },
        {
            "anonymous": false,
            "inputs": [
                {
                    "indexed": false,
                    "internalType": "uint16",
                    "name": "seasonId",
                    "type": "uint16"
                },
                {
                    "indexed": true,
                    "internalType": "address",
                    "name": "recipient",
                    "type": "address"
                },
                {
                    "indexed": false,
                    "internalType": "uint32",
                    "name": "qty",
                    "type": "uint32"
                },
                {
                    "indexed": false,
                    "internalType": "uint32",
                    "name": "endBallId",
                    "type": "uint32"
                }
            ],
            "name": "BallIssued",
            "type": "event"
        },
        {
            "anonymous": false,
            "inputs": [
                {
                    "indexed": false,
                    "internalType": "uint16",
                    "name": "seasonId",
                    "type": "uint16"
                },
                {
                    "indexed": false,
                    "internalType": "uint32",
                    "name": "revealGroupId",
                    "type": "uint32"
                }
            ],
            "name": "CodeSeedRevealed",
            "type": "event"
        },
        {
            "anonymous": false,
            "inputs": [
                {
                    "indexed": false,
                    "internalType": "address",
                    "name": "owner",
                    "type": "address"
                }
            ],
            "name": "OwnerTransfered",
            "type": "event"
        },
        {
            "anonymous": false,
            "inputs": [
                {
                    "indexed": false,
                    "internalType": "uint16",
                    "name": "seasonId",
                    "type": "uint16"
                },
                {
                    "indexed": false,
                    "internalType": "uint32",
                    "name": "revealGroupId",
                    "type": "uint32"
                },
                {
                    "indexed": true,
                    "internalType": "address",
                    "name": "requestor",
                    "type": "address"
                }
            ],
            "name": "RevealRequested",
            "type": "event"
        },
        {
            "anonymous": false,
            "inputs": [
                {
                    "indexed": false,
                    "internalType": "uint16",
                    "name": "seasonId",
                    "type": "uint16"
                }
            ],
            "name": "SeasonEnded",
            "type": "event"
        },
        {
            "anonymous": false,
            "inputs": [
                {
                    "indexed": false,
                    "internalType": "uint16",
                    "name": "seasonId",
                    "type": "uint16"
                }
            ],
            "name": "SeasonStarted",
            "type": "event"
        },
        {
            "anonymous": false,
            "inputs": [
                {
                    "indexed": false,
                    "internalType": "address",
                    "name": "operator",
                    "type": "address"
                }
            ],
            "name": "SetOperator",
            "type": "event"
        },
        {
            "anonymous": false,
            "inputs": [
                {
                    "indexed": true,
                    "internalType": "uint16",
                    "name": "seasonId",
                    "type": "uint16"
                },
                {
                    "indexed": false,
                    "internalType": "uint32",
                    "name": "ballId",
                    "type": "uint32"
                }
            ],
            "name": "WinnerPicked",
            "type": "event"
        },
        {
            "inputs": [],
            "name": "DOMAIN_SEPARATOR",
            "outputs": [
                {
                    "internalType": "bytes32",
                    "name": "",
                    "type": "bytes32"
                }
            ],
            "stateMutability": "view",
            "type": "function"
        },
        {
            "inputs": [],
            "name": "ballCount",
            "outputs": [
                {
                    "internalType": "uint32",
                    "name": "",
                    "type": "uint32"
                }
            ],
            "stateMutability": "view",
            "type": "function"
        },
        {
            "inputs": [
                {
                    "internalType": "uint256",
                    "name": "",
                    "type": "uint256"
                }
            ],
            "name": "ballGroups",
            "outputs": [
                {
                    "internalType": "uint32",
                    "name": "endBallId",
                    "type": "uint32"
                },
                {
                    "internalType": "address",
                    "name": "owner",
                    "type": "address"
                }
            ],
            "stateMutability": "view",
            "type": "function"
        },
        {
            "inputs": [
                {
                    "internalType": "uint32",
                    "name": "",
                    "type": "uint32"
                },
                {
                    "internalType": "uint256",
                    "name": "",
                    "type": "uint256"
                }
            ],
            "name": "ballPosByRevealGroup",
            "outputs": [
                {
                    "internalType": "uint32",
                    "name": "",
                    "type": "uint32"
                }
            ],
            "stateMutability": "view",
            "type": "function"
        },
        {
            "inputs": [],
            "name": "endSeason",
            "outputs": [
                {
                    "internalType": "bool",
                    "name": "",
                    "type": "bool"
                }
            ],
            "stateMutability": "nonpayable",
            "type": "function"
        },
        {
            "inputs": [
                {
                    "internalType": "uint32",
                    "name": "ballId",
                    "type": "uint32"
                }
            ],
            "name": "getBallCode",
            "outputs": [
                {
                    "internalType": "uint32",
                    "name": "",
                    "type": "uint32"
                }
            ],
            "stateMutability": "view",
            "type": "function"
        },
        {
            "inputs": [
                {
                    "internalType": "uint32",
                    "name": "ballId",
                    "type": "uint32"
                }
            ],
            "name": "getBallGroupPos",
            "outputs": [
                {
                    "internalType": "uint32",
                    "name": "",
                    "type": "uint32"
                }
            ],
            "stateMutability": "view",
            "type": "function"
        },
        {
            "inputs": [],
            "name": "getBalls",
            "outputs": [
                {
                    "internalType": "uint32[]",
                    "name": "",
                    "type": "uint32[]"
                }
            ],
            "stateMutability": "view",
            "type": "function"
        },
        {
            "inputs": [
                {
                    "internalType": "address",
                    "name": "addr",
                    "type": "address"
                },
                {
                    "internalType": "uint16",
                    "name": "seasonId",
                    "type": "uint16"
                }
            ],
            "name": "getBalls",
            "outputs": [
                {
                    "internalType": "uint32[]",
                    "name": "",
                    "type": "uint32[]"
                }
            ],
            "stateMutability": "view",
            "type": "function"
        },
        {
            "inputs": [
                {
                    "internalType": "uint32",
                    "name": "revealGroupId",
                    "type": "uint32"
                }
            ],
            "name": "getBallsByRevealGroup",
            "outputs": [
                {
                    "internalType": "uint32[]",
                    "name": "",
                    "type": "uint32[]"
                }
            ],
            "stateMutability": "view",
            "type": "function"
        },
        {
            "inputs": [],
            "name": "getCurrentBallGroupPos",
            "outputs": [
                {
                    "internalType": "uint32",
                    "name": "",
                    "type": "uint32"
                }
            ],
            "stateMutability": "view",
            "type": "function"
        },
        {
            "inputs": [],
            "name": "getCurrentRevealGroupId",
            "outputs": [
                {
                    "internalType": "uint32",
                    "name": "",
                    "type": "uint32"
                }
            ],
            "stateMutability": "view",
            "type": "function"
        },
        {
            "inputs": [],
            "name": "getCurrentSeasonId",
            "outputs": [
                {
                    "internalType": "uint16",
                    "name": "",
                    "type": "uint16"
                }
            ],
            "stateMutability": "view",
            "type": "function"
        },
        {
            "inputs": [],
            "name": "getDomainInfo",
            "outputs": [
                {
                    "internalType": "string",
                    "name": "",
                    "type": "string"
                },
                {
                    "internalType": "string",
                    "name": "",
                    "type": "string"
                },
                {
                    "internalType": "uint256",
                    "name": "",
                    "type": "uint256"
                },
                {
                    "internalType": "address",
                    "name": "",
                    "type": "address"
                }
            ],
            "stateMutability": "view",
            "type": "function"
        },
        {
            "inputs": [
                {
                    "internalType": "address",
                    "name": "_user",
                    "type": "address"
                },
                {
                    "internalType": "uint256",
                    "name": "_deadline",
                    "type": "uint256"
                },
                {
                    "internalType": "uint256",
                    "name": "_nonce",
                    "type": "uint256"
                }
            ],
            "name": "getEIP712Hash",
            "outputs": [
                {
                    "internalType": "bytes32",
                    "name": "",
                    "type": "bytes32"
                }
            ],
            "stateMutability": "view",
            "type": "function"
        },
        {
            "inputs": [],
            "name": "getOperator",
            "outputs": [
                {
                    "internalType": "address",
                    "name": "",
                    "type": "address"
                }
            ],
            "stateMutability": "view",
            "type": "function"
        },
        {
            "inputs": [],
            "name": "getOwner",
            "outputs": [
                {
                    "internalType": "address",
                    "name": "",
                    "type": "address"
                }
            ],
            "stateMutability": "view",
            "type": "function"
        },
        {
            "inputs": [],
            "name": "getRelayMessageTypes",
            "outputs": [
                {
                    "internalType": "string",
                    "name": "",
                    "type": "string"
                }
            ],
            "stateMutability": "pure",
            "type": "function"
        },
        {
            "inputs": [
                {
                    "internalType": "uint32",
                    "name": "ballId",
                    "type": "uint32"
                }
            ],
            "name": "getRevealGroup",
            "outputs": [
                {
                    "internalType": "uint32",
                    "name": "",
                    "type": "uint32"
                }
            ],
            "stateMutability": "view",
            "type": "function"
        },
        {
            "inputs": [
                {
                    "internalType": "address",
                    "name": "user",
                    "type": "address"
                },
                {
                    "internalType": "uint16",
                    "name": "seasonId",
                    "type": "uint16"
                }
            ],
            "name": "getUserBallCount",
            "outputs": [
                {
                    "internalType": "uint32",
                    "name": "",
                    "type": "uint32"
                }
            ],
            "stateMutability": "view",
            "type": "function"
        },
        {
            "inputs": [],
            "name": "isSeasonActive",
            "outputs": [
                {
                    "internalType": "bool",
                    "name": "",
                    "type": "bool"
                }
            ],
            "stateMutability": "view",
            "type": "function"
        },
        {
            "inputs": [
                {
                    "internalType": "address[]",
                    "name": "_tos",
                    "type": "address[]"
                },
                {
                    "internalType": "uint32[]",
                    "name": "_qty",
                    "type": "uint32[]"
                }
            ],
            "name": "issueBalls",
            "outputs": [
                {
                    "internalType": "bool",
                    "name": "",
                    "type": "bool"
                }
            ],
            "stateMutability": "nonpayable",
            "type": "function"
        },
        {
            "inputs": [],
            "name": "lastRequestId",
            "outputs": [
                {
                    "internalType": "uint256",
                    "name": "",
                    "type": "uint256"
                }
            ],
            "stateMutability": "view",
            "type": "function"
        },
        {
            "inputs": [
                {
                    "internalType": "address",
                    "name": "",
                    "type": "address"
                }
            ],
            "name": "newRevealPos",
            "outputs": [
                {
                    "internalType": "uint32",
                    "name": "",
                    "type": "uint32"
                }
            ],
            "stateMutability": "view",
            "type": "function"
        },
        {
            "inputs": [
                {
                    "internalType": "address",
                    "name": "user",
                    "type": "address"
                }
            ],
            "name": "nonces",
            "outputs": [
                {
                    "internalType": "uint256",
                    "name": "",
                    "type": "uint256"
                }
            ],
            "stateMutability": "view",
            "type": "function"
        },
        {
            "inputs": [
                {
                    "internalType": "uint32",
                    "name": "ballId",
                    "type": "uint32"
                }
            ],
            "name": "ownerOf",
            "outputs": [
                {
                    "internalType": "address",
                    "name": "",
                    "type": "address"
                }
            ],
            "stateMutability": "view",
            "type": "function"
        },
        {
            "inputs": [
                {
                    "internalType": "uint256",
                    "name": "requestId",
                    "type": "uint256"
                },
                {
                    "internalType": "uint256[]",
                    "name": "randomWords",
                    "type": "uint256[]"
                }
            ],
            "name": "rawFulfillRandomWords",
            "outputs": [],
            "stateMutability": "nonpayable",
            "type": "function"
        },
        {
            "inputs": [
                {
                    "internalType": "address",
                    "name": "user",
                    "type": "address"
                },
                {
                    "internalType": "uint256",
                    "name": "deadline",
                    "type": "uint256"
                },
                {
                    "internalType": "uint8",
                    "name": "v",
                    "type": "uint8"
                },
                {
                    "internalType": "bytes32",
                    "name": "r",
                    "type": "bytes32"
                },
                {
                    "internalType": "bytes32",
                    "name": "s",
                    "type": "bytes32"
                }
            ],
            "name": "relayRequestReveal",
            "outputs": [
                {
                    "internalType": "bool",
                    "name": "",
                    "type": "bool"
                }
            ],
            "stateMutability": "nonpayable",
            "type": "function"
        },
        {
            "inputs": [
                {
                    "internalType": "address[]",
                    "name": "users",
                    "type": "address[]"
                },
                {
                    "internalType": "uint256[]",
                    "name": "deadlines",
                    "type": "uint256[]"
                },
                {
                    "internalType": "uint8[]",
                    "name": "vs",
                    "type": "uint8[]"
                },
                {
                    "internalType": "bytes32[]",
                    "name": "rs",
                    "type": "bytes32[]"
                },
                {
                    "internalType": "bytes32[]",
                    "name": "ss",
                    "type": "bytes32[]"
                }
            ],
            "name": "relayRequestRevealBatch",
            "outputs": [
                {
                    "internalType": "bool",
                    "name": "",
                    "type": "bool"
                }
            ],
            "stateMutability": "nonpayable",
            "type": "function"
        },
        {
            "inputs": [],
            "name": "requestReveal",
            "outputs": [
                {
                    "internalType": "bool",
                    "name": "",
                    "type": "bool"
                }
            ],
            "stateMutability": "nonpayable",
            "type": "function"
        },
        {
            "inputs": [],
            "name": "requestRevealGroupSeed",
            "outputs": [
                {
                    "internalType": "uint256",
                    "name": "",
                    "type": "uint256"
                }
            ],
            "stateMutability": "nonpayable",
            "type": "function"
        },
        {
            "inputs": [
                {
                    "internalType": "uint32",
                    "name": "",
                    "type": "uint32"
                }
            ],
            "name": "revealGroupSeeds",
            "outputs": [
                {
                    "internalType": "uint256",
                    "name": "",
                    "type": "uint256"
                }
            ],
            "stateMutability": "view",
            "type": "function"
        },
        {
            "inputs": [
                {
                    "internalType": "uint32",
                    "name": "",
                    "type": "uint32"
                }
            ],
            "name": "revealGroups",
            "outputs": [
                {
                    "internalType": "uint32",
                    "name": "",
                    "type": "uint32"
                }
            ],
            "stateMutability": "view",
            "type": "function"
        },
        {
            "inputs": [],
            "name": "revealNeeded",
            "outputs": [
                {
                    "internalType": "bool",
                    "name": "",
                    "type": "bool"
                }
            ],
            "stateMutability": "view",
            "type": "function"
        },
        {
            "inputs": [
                {
                    "internalType": "uint256",
                    "name": "",
                    "type": "uint256"
                }
            ],
            "name": "s_requests",
            "outputs": [
                {
                    "internalType": "bool",
                    "name": "exists",
                    "type": "bool"
                },
                {
                    "internalType": "bool",
                    "name": "isSeasonPick",
                    "type": "bool"
                },
                {
                    "internalType": "uint256",
                    "name": "seed",
                    "type": "uint256"
                }
            ],
            "stateMutability": "view",
            "type": "function"
        },
        {
            "inputs": [
                {
                    "internalType": "uint16",
                    "name": "",
                    "type": "uint16"
                }
            ],
            "name": "seasons",
            "outputs": [
                {
                    "internalType": "uint16",
                    "name": "seasonId",
                    "type": "uint16"
                },
                {
                    "internalType": "uint32",
                    "name": "startBallId",
                    "type": "uint32"
                },
                {
                    "internalType": "uint32",
                    "name": "endBallId",
                    "type": "uint32"
                },
                {
                    "internalType": "uint32",
                    "name": "winningBallId",
                    "type": "uint32"
                },
                {
                    "internalType": "uint32",
                    "name": "winningCode",
                    "type": "uint32"
                }
            ],
            "stateMutability": "view",
            "type": "function"
        },
        {
            "inputs": [
                {
                    "internalType": "address",
                    "name": "_newOperator",
                    "type": "address"
                }
            ],
            "name": "setOperator",
            "outputs": [],
            "stateMutability": "nonpayable",
            "type": "function"
        },
        {
            "inputs": [],
            "name": "startSeason",
            "outputs": [],
            "stateMutability": "nonpayable",
            "type": "function"
        },
        {
            "inputs": [
                {
                    "internalType": "address",
                    "name": "_newOwner",
                    "type": "address"
                }
            ],
            "name": "transferOwner",
            "outputs": [],
            "stateMutability": "nonpayable",
            "type": "function"
        },
        {
            "inputs": [
                {
                    "internalType": "address",
                    "name": "",
                    "type": "address"
                },
                {
                    "internalType": "uint16",
                    "name": "",
                    "type": "uint16"
                },
                {
                    "internalType": "uint256",
                    "name": "",
                    "type": "uint256"
                }
            ],
            "name": "userBallGroups",
            "outputs": [
                {
                    "internalType": "uint32",
                    "name": "",
                    "type": "uint32"
                }
            ],
            "stateMutability": "view",
            "type": "function"
        },
        {
            "inputs": [
                {
                    "internalType": "address",
                    "name": "_user",
                    "type": "address"
                },
                {
                    "internalType": "uint256",
                    "name": "_deadline",
                    "type": "uint256"
                },
                {
                    "internalType": "uint256",
                    "name": "_nonce",
                    "type": "uint256"
                },
                {
                    "internalType": "uint8",
                    "name": "v",
                    "type": "uint8"
                },
                {
                    "internalType": "bytes32",
                    "name": "r",
                    "type": "bytes32"
                },
                {
                    "internalType": "bytes32",
                    "name": "s",
                    "type": "bytes32"
                }
            ],
            "name": "verifySig",
            "outputs": [
                {
                    "internalType": "bool",
                    "name": "",
                    "type": "bool"
                }
            ],
            "stateMutability": "view",
            "type": "function"
        }
    ],
    "bytecode": "61010060405234801562000011575f80fd5b50604051620031c9380380620031c9833981016040819052620000349162000225565b6001600160a01b038216608081905260a05260e08190526001600160401b03831660c0525f80546601000000000000900463ffffffff1690600662000079836200027e565b82546101009290920a63ffffffff818102199093169190921691909102179055505f8054600160501b600160f01b031916336a0100000000000000000000810291909117909155600180546001600160a01b0319169091179055620000dd620000e6565b505050620002db565b5f604051806080016040528060528152602001620031776052913990505f80808062000150604080518082018252600f81526e4c75636b7942616c6c5f52656c617960881b602080830191909152825180840190935260018352603160f81b908301529146903090565b9350935093509350846040516020016200016b9190620002ad565b6040516020818303038152906040528051906020012084604051602001620001949190620002ad565b6040516020818303038152906040528051906020012084604051602001620001bd9190620002ad565b60408051601f198184030181528282528051602091820120908301949094528101919091526060810191909152608081018390526001600160a01b03821660a082015260c00160408051601f1981840301815291905280516020909101206005555050505050565b5f805f6060848603121562000238575f80fd5b83516001600160401b03811681146200024f575f80fd5b60208501519093506001600160a01b03811681146200026c575f80fd5b80925050604084015190509250925092565b5f63ffffffff808316818103620002a357634e487b7160e01b5f52601160045260245ffd5b6001019392505050565b5f82515f5b81811015620002ce5760208186018101518583015201620002b2565b505f920191825250919050565b60805160a05160c05160e051612e61620003165f395f611fde01525f61200d01525f61205701525f818161071101526107530152612e615ff3fe608060405234801561000f575f80fd5b506004361061024a575f3560e01c8063893d20e811610140578063b20aaaf5116100bf578063df6fba1d11610084578063df6fba1d14610629578063e7f43c6814610631578063ec42bc1114610642578063f9523b2114610655578063faacbbb4146106a6578063fc2a88c3146106b9575f80fd5b8063b20aaaf5146105b0578063b3ab15fb146105e7578063ba732064146105fa578063d37431a614610602578063d5f9e1bc1461060a575f80fd5b8063a404932511610105578063a40493251461055a578063a529d3b01461056d578063aca66cfe14610582578063ae95234c14610595578063b07870b5146105a8575f80fd5b8063893d20e8146104c0578063952a9633146104d75780639ceaddc9146104df5780639d3db7db146104f6578063a168fa891461050a575f80fd5b80634fb2e45d116101cc5780636b8d0f3b116101915780636b8d0f3b146103cb5780636ebaeda9146103de5780637c8b38ad146104655780637ecebe00146104785780638090820f146104a0575f80fd5b80634fb2e45d1461035f5780635153157a146103725780635e75a6c3146103855780635f4f79bb146103a55780636999f376146103b8575f80fd5b80632939f5ab116102125780632939f5ab146102e35780632e23b27a146103085780632ffb84dd1461031b5780633644e515146103405780633dcdb67214610357575f80fd5b8063060ed27f1461024e5780630841ba3014610277578063155152e6146102905780631fe543e3146102a357806323b7ec3b146102b8575b5f80fd5b60015461026290600160c01b900460ff1681565b60405190151581526020015b60405180910390f35b6002545b60405163ffffffff909116815260200161026e565b61027b61029e366004612696565b6106c2565b6102b66102b13660046126d2565b610706565b005b6102cb6102c6366004612797565b610793565b6040516001600160a01b03909116815260200161026e565b61027b6102f1366004612797565b60096020525f908152604090205463ffffffff1681565b6102626103163660046127f8565b610843565b61027b610329366004612875565b600b6020525f908152604090205463ffffffff1681565b61034960055481565b60405190815260200161026e565b610262610bc9565b6102b661036d366004612875565b610cf7565b61027b61038036600461289f565b610d9c565b5f54600160201b900461ffff1660405161ffff909116815260200161026e565b6102626103b33660046128e8565b610deb565b6102626103c6366004612932565b610ef9565b61027b6103d9366004612986565b610f9d565b61042d6103ec3660046129b7565b60076020525f908152604090205461ffff81169063ffffffff620100008204811691600160301b8104821691600160501b8204811691600160701b90041685565b6040805161ffff909616865263ffffffff9485166020870152928416928501929092528216606084015216608082015260a00161026e565b61027b610473366004612797565b61117e565b610349610486366004612875565b6001600160a01b03165f9081526006602052604090205490565b6104b36104ae366004612797565b6111aa565b60405161026e91906129d0565b5f54600160501b90046001600160a01b03166102cb565b6102b66114fd565b60015461027b90600160a01b900463ffffffff1681565b5f54600160301b900463ffffffff1661027b565b61053d610518366004612a0d565b60046020525f90815260409020805460019091015460ff808316926101009004169083565b60408051931515845291151560208401529082015260600161026e565b610262610568366004612a24565b6117a5565b610575611876565b60405161026e9190612b57565b61027b610590366004612797565b611898565b6103496105a3366004612b69565b611a46565b610262611af7565b6105c36105be366004612a0d565b611b06565b6040805163ffffffff90931683526001600160a01b0390911660208301520161026e565b6102b66105f5366004612875565b611b3c565b610262611bba565b610349611c07565b610349610618366004612797565b600a6020525f908152604090205481565b6104b3611c6e565b6001546001600160a01b03166102cb565b61027b610650366004612797565b611c89565b604080518082018252600f81526e4c75636b7942616c6c5f52656c617960881b602080830191909152825180840190935260018352603160f81b9083015290463060405161026e9493929190612b99565b6104b36106b4366004612986565b611d05565b61034960035481565b600c602052815f5260405f2081815481106106db575f80fd5b905f5260205f209060089182820401919006600402915091509054906101000a900463ffffffff1681565b336001600160a01b037f000000000000000000000000000000000000000000000000000000000000000016146107855760405163073e64fd60e21b81523360048201526001600160a01b037f00000000000000000000000000000000000000000000000000000000000000001660248201526044015b60405180910390fd5b61078f8282611f47565b5050565b5f8163ffffffff165f036107a857505f919050565b5f5b60025463ffffffff8216101561083b5760028163ffffffff16815481106107d3576107d3612bdf565b5f9182526020909120015463ffffffff908116908416116108295760028163ffffffff168154811061080757610807612bdf565b5f91825260209091200154600160201b90046001600160a01b03169392505050565b8061083381612c07565b9150506107aa565b505f92915050565b6001545f906001600160a01b031633148061086e57505f54600160501b90046001600160a01b031633145b61088a5760405162461bcd60e51b815260040161077c90612c29565b8382146108ef5760405162461bcd60e51b815260206004820152602d60248201527f4c75636b42616c6c3a206164647265737320616e642071747920636f756e747360448201526c040c8de40dcdee840dac2e8c6d609b1b606482015260840161077c565b6108f7611bba565b6109435760405162461bcd60e51b815260206004820152601f60248201527f4c75636b7942616c6c3a20536561736f6e206973206e6f742061637469766500604482015260640161077c565b835f5b8161ffff168161ffff161015610bbc575f87878361ffff1681811061096d5761096d612bdf565b90506020020160208101906109829190612875565b90505f86868461ffff1681811061099b5761099b612bdf565b90506020020160208101906109b09190612797565b90505f8163ffffffff1611610a165760405162461bcd60e51b815260206004820152602660248201527f4c75636b7942616c6c3a207174792073686f756c64206265206269676765722060448201526507468616e20360d41b606482015260840161077c565b80600160148282829054906101000a900463ffffffff16610a379190612c77565b82546101009290920a63ffffffff81810219909316918316021790915560408051808201825260018054600160a01b9004841682526001600160a01b0387811660208085018281526002805480870182555f82815297517f405787fa12a823e0f2b7631cc41b3ba8828b3321ca811111fa75cd3aa3bb5ace9091018054935191909a166001600160c01b031990931692909217600160201b929095168202949094179097559084526008815284842084549690960461ffff168452949094529190209154919250610b0791612c9b565b8154600180820184555f93845260208085206008840401805460079094166004026101000a63ffffffff8181021990951695851602949094179093559254925460408051600160201b90950461ffff16855285831693850193909352600160a01b900416908201526001600160a01b038316907f12c5816b174d57406725d3c8b6fa3ff49f939773177deccd473b1cda97f483ef9060600160405180910390a250508080610bb490612cae565b915050610946565b5060019695505050505050565b6001545f906001600160a01b0316331480610bf457505f54600160501b90046001600160a01b031633145b610c105760405162461bcd60e51b815260040161077c90612c29565b600254610c5f5760405162461bcd60e51b815260206004820152601e60248201527f4c75636b7942616c6c3a204e6f2062616c6c7320697373756564207965740000604482015260640161077c565b600154600160c01b900460ff1615610c7b57610c79611c07565b505b60028054610c8b90600190612c9b565b81548110610c9b57610c9b612bdf565b5f918252602080832091909101548254600160201b900461ffff16835260079091526040909120805469ffffffff000000000000191663ffffffff909216600160301b02919091179055610cef6001611fcf565b506001905090565b5f54600160501b90046001600160a01b03163314610d275760405162461bcd60e51b815260040161077c90612cc4565b5f80547fffff0000000000000000000000000000000000000000ffffffffffffffffffff16600160501b6001600160a01b038416908102919091179091556040519081527f32f9b4ad842654dbc1aefcf3959047b3100382a41e757e901bf5f504d503a709906020015b60405180910390a150565b6008602052825f5260405f20602052815f5260405f208181548110610dbf575f80fd5b905f5260205f20906008918282040191900660040292509250509054906101000a900463ffffffff1681565b5f42851015610e3c5760405162461bcd60e51b815260206004820152601b60248201527f4c75636b7942616c6c3a206578706972656420646561646c696e650000000000604482015260640161077c565b6001600160a01b0386165f90815260066020526040902054610e649087908790878787610ef9565b610ebb5760405162461bcd60e51b815260206004820152602260248201527f4c75636b7942616c6c3a20757365722073696720646f6573206e6f74206d61746044820152610c6d60f31b606482015260840161077c565b610ec486612125565b506001600160a01b0386165f908152600660205260408120805491610ee883612d0f565b909155506001979650505050505050565b5f80610f06888888611a46565b9050601b8560ff161015610f2257610f1f601b86612d27565b94505b604080515f81526020810180835283905260ff871691810191909152606081018590526080810184905260019060a0016020604051602081039080840390855afa158015610f72573d5f803e3d5ffd5b505050602060405103516001600160a01b0316886001600160a01b0316149150509695505050505050565b6001600160a01b0382165f90815260086020908152604080832061ffff8516845282528083208054825181850281018501909352808352849383018282801561102e57602002820191905f5260205f20905f905b82829054906101000a900463ffffffff1663ffffffff1681526020019060040190602082600301049283019260010382029150808411610ff15790505b505050505090505f80825190505f5b8161ffff168161ffff161015611171575f6002858361ffff168151811061106657611066612bdf565b602002602001015163ffffffff168154811061108457611084612bdf565b5f91825260208083206040805180820190915292015463ffffffff81168352600160201b90046001600160a01b0316908201528651909250869061ffff85169081106110d2576110d2612bdf565b602002602001015163ffffffff165f036110ed57505f611143565b60026001878561ffff168151811061110757611107612bdf565b60200260200101516111199190612d40565b63ffffffff168154811061112f5761112f612bdf565b5f9182526020909120015463ffffffff1690505b8151611150908290612d40565b61115a9086612c77565b94505050808061116990612cae565b91505061103d565b5090925050505b92915050565b5f60095f61118b84611898565b63ffffffff908116825260208201929092526040015f20541692915050565b63ffffffff81165f908152600c6020908152604080832080548251818502810185019093528083526060949383018282801561122e57602002820191905f5260205f20905f905b82829054906101000a900463ffffffff1663ffffffff16815260200190600401906020826003010492830192600103820291508084116111f15790505b505083519394505f9250829150505b82811015611352575f80600286848151811061125b5761125b612bdf565b602002602001015163ffffffff168154811061127957611279612bdf565b5f91825260209091200154865163ffffffff90911691508690849081106112a2576112a2612bdf565b602002602001015163ffffffff165f036112bf576001915061131c565b600260018785815181106112d5576112d5612bdf565b60200260200101516112e79190612d40565b63ffffffff16815481106112fd576112fd612bdf565b5f918252602090912001546113199063ffffffff166001612c77565b91505b6113268282612d40565b611331906001612c77565b61133b9085612c77565b93505050808061134a90612d0f565b91505061123d565b505f8163ffffffff1667ffffffffffffffff811115611373576113736126be565b60405190808252806020026020018201604052801561139c578160200160208202803683370190505b5090505f805b848110156114f1575f60028783815181106113bf576113bf612bdf565b602002602001015163ffffffff16815481106113dd576113dd612bdf565b5f918252602082200154885163ffffffff909116925088908490811061140557611405612bdf565b602002602001015163ffffffff165f036114215750600161147e565b6002600189858151811061143757611437612bdf565b60200260200101516114499190612d40565b63ffffffff168154811061145f5761145f612bdf565b5f9182526020909120015461147b9063ffffffff166001612c77565b90505b805b8263ffffffff168163ffffffff16116114db57808686815181106114a6576114a6612bdf565b63ffffffff90921660209283029190910190910152846114c581612d0f565b95505080806114d390612c07565b915050611480565b50505080806114e990612d0f565b9150506113a2565b50909695505050505050565b6001546001600160a01b031633148061152657505f54600160501b90046001600160a01b031633145b6115425760405162461bcd60e51b815260040161077c90612c29565b5f54600160201b900461ffff161580159061158157505f8054600160201b900461ffff16815260076020526040902054600160501b900463ffffffff16155b156115ea5760405162461bcd60e51b815260206004820152603360248201527f4c75636b7942616c6c3a207468652063757272656e7420736561736f6e2073686044820152721bdd5b1908189948195b99195908199a5c9cdd606a1b606482015260840161077c565b5f8054600160201b900461ffff1690600461160483612cae565b91906101000a81548161ffff021916908361ffff160217905550505f6002805490505f0361163457506001611680565b6002600161164160025490565b61164b9190612d40565b63ffffffff168154811061166157611661612bdf565b5f9182526020909120015461167d9063ffffffff166001612c77565b90505b6040805160a0810182525f8054600160201b900461ffff16825263ffffffff841660208301529181018290526060810191909152608081016116c0612457565b63ffffffff9081169091525f805461ffff600160201b918290048116835260076020908152604080852087518154898501518a85015160608c01516080909c01518b16600160701b0263ffffffff60701b199c8c16600160501b0263ffffffff60501b19928d16600160301b02929092166dffffffffffffffff0000000000001993909c16620100000265ffffffffffff19909416948916949094179290921716989098179790971797909716959095179095559154925192041681527f07204462c8a94d3c2607325b273d4d412a4fadf24f82efd8d6872dbf5c33bd2f9101610d91565b5f805b8a811015611864576118518c8c838181106117c5576117c5612bdf565b90506020020160208101906117da9190612875565b8b8b848181106117ec576117ec612bdf565b905060200201358a8a8581811061180557611805612bdf565b905060200201602081019061181a9190612d5d565b89898681811061182c5761182c612bdf565b9050602002013588888781811061184557611845612bdf565b90506020020135610deb565b508061185c81612d0f565b9150506117a8565b5060019b9a5050505050505050505050565b60605f604051806060016040528060338152602001612df96033913992915050565b6002545f9063ffffffff8316158015906118c5575060015463ffffffff600160a01b909104811690841611155b61191b5760405162461bcd60e51b815260206004820152602160248201527f4c75636b7942616c6c3a2062616c6c4964206973206f7574206f662072616e676044820152606560f81b606482015260840161077c565b5f8163ffffffff16116119705760405162461bcd60e51b815260206004820152601960248201527f4c75636b7942616c6c3a204e6f2062616c6c2069737375656400000000000000604482015260640161077c565b5f61197c600183612d40565b90505b5f8163ffffffff165f03611995575060016119d7565b60026119a2600184612d40565b63ffffffff16815481106119b8576119b8612bdf565b5f918252602090912001546119d49063ffffffff166001612c77565b90505b5f60028363ffffffff16815481106119f1576119f1612bdf565b5f9182526020909120015463ffffffff908116915086168110801590611a2357508163ffffffff168663ffffffff1610155b15611a32575090949350505050565b505080611a3e81612d76565b91505061197f565b5f80611a50611876565b90505f60055482604051602001611a679190612d94565b60408051808303601f190181528282528051602091820120818401526001600160a01b038a16838301526060830189905260808084018990528251808503909101815260a08401909252815191012061190160f01b60c083015260c282019290925260e28101919091526101020160408051808303601f1901815291905280516020909101209695505050505050565b5f611b0133612125565b905090565b60028181548110611b15575f80fd5b5f9182526020909120015463ffffffff81169150600160201b90046001600160a01b031682565b5f54600160501b90046001600160a01b03163314611b6c5760405162461bcd60e51b815260040161077c90612cc4565b600180546001600160a01b0319166001600160a01b0383169081179091556040519081527fdbebfba65bd6398fb722063efc10c99f624f9cd8ba657201056af918a676d5ee90602001610d91565b5f8054600160201b900461ffff16815260076020526040812054600160501b900463ffffffff1615611beb57505f90565b5f54600160201b900461ffff16611c0157505f90565b50600190565b6001545f906001600160a01b0316331480611c3257505f54600160501b90046001600160a01b031633145b611c4e5760405162461bcd60e51b815260040161077c90612c29565b600154600160c01b900460ff1615611c6957611b015f611fcf565b505f90565b6060611b01335f60049054906101000a900461ffff16611d05565b5f80600a5f611c978561117e565b63ffffffff16815260208101919091526040015f20549050801561083b57611cfe8184604051602001611ce192919091825260e01b6001600160e01b031916602082015260240190565b604051602081830303815290604052805190602001205f1c61247e565b9392505050565b6001600160a01b0382165f90815260086020908152604080832061ffff851684528252808320805482518185028101850190935280835260609493830182828015611d9857602002820191905f5260205f20905f905b82829054906101000a900463ffffffff1663ffffffff1681526020019060040190602082600301049283019260010382029150808411611d5b5790505b505050505090505f611daa8585610f9d565b63ffffffff1667ffffffffffffffff811115611dc857611dc86126be565b604051908082528060200260200182016040528015611df1578160200160208202803683370190505b5090505f805b8351811015611171575f6002858381518110611e1557611e15612bdf565b602002602001015163ffffffff1681548110611e3357611e33612bdf565b5f918252602082200154865163ffffffff9091169250869084908110611e5b57611e5b612bdf565b602002602001015163ffffffff165f03611e7757506001611ed4565b60026001878581518110611e8d57611e8d612bdf565b6020026020010151611e9f9190612d40565b63ffffffff1681548110611eb557611eb5612bdf565b5f91825260209091200154611ed19063ffffffff166001612c77565b90505b805b8263ffffffff168163ffffffff1611611f315780868681518110611efc57611efc612bdf565b63ffffffff9092166020928302919091019091015284611f1b81612d0f565b9550508080611f2990612c07565b915050611ed6565b5050508080611f3f90612d0f565b915050611df7565b5f815f81518110611f5a57611f5a612bdf565b602002602001015142604051602001611f7d929190918252602082015260400190565b60408051808303601f1901815291815281516020928301205f868152600490935291206001810182905554909150610100900460ff1615611fc657611fc1816124a7565b505050565b611fc1816125c9565b6040516305d3b1d360e41b81527f0000000000000000000000000000000000000000000000000000000000000000600482015267ffffffffffffffff7f00000000000000000000000000000000000000000000000000000000000000001660248201526003604482015262061a806064820152600160848201525f9081906001600160a01b037f00000000000000000000000000000000000000000000000000000000000000001690635d3b1d309060a4016020604051808303815f875af115801561209d573d5f803e3d5ffd5b505050506040513d601f19601f820116820180604052508101906120c19190612daf565b600381905560408051606081018252600180825295151560208083019182525f83850181815286825260049092529390932091518254915161ffff1990921690151561ff001916176101009115159190910217815590519401939093555090919050565b6001600160a01b0381165f9081526008602090815260408083208354600160201b900461ffff1684528252808320805482518185028101850190935280835284938301828280156121be57602002820191905f5260205f20905f905b82829054906101000a900463ffffffff1663ffffffff16815260200190600401906020826003010492830192600103820291508084116121815790505b505083516001600160a01b0388165f908152600b60205260409020549495509363ffffffff908116935084161515915061223c90505760405162461bcd60e51b815260206004820152601d60248201527f4c75636b7942616c6c3a204e6f2062616c6c7320746f2072657665616c000000604482015260640161077c565b8063ffffffff168263ffffffff16116122a15760405162461bcd60e51b815260206004820152602160248201527f4c75636b7942616c6c3a204e6f206e65772062616c6c7320746f2072657665616044820152601b60fa1b606482015260840161077c565b805b8263ffffffff168163ffffffff1610156123a1575f60069054906101000a900463ffffffff1660095f868463ffffffff16815181106122e4576122e4612bdf565b60209081029190910181015163ffffffff90811683528282019390935260409182015f908120805463ffffffff1916958516959095179094558354600160301b900483168452600c905290912085519091869190841690811061234957612349612bdf565b60209081029190910181015182546001810184555f938452919092206008820401805460079092166004026101000a63ffffffff8181021990931692909316929092021790558061239981612c07565b9150506122a3565b506001600160a01b0385165f908152600b60205260409020805463ffffffff191663ffffffff8416179055600154600160c01b900460ff166123f1576001805460ff60c01b1916600160c01b1790555b5f5460408051600160201b830461ffff168152600160301b90920463ffffffff1660208301526001600160a01b038716917fb0f6eeb232a119be1778549f2a4ade4a758aa829df5eb4196705a85879ff2c45910160405180910390a2505f949350505050565b5f611b01612466600143612c9b565b60408051914060208301524290820152606001611ce1565b5f8061248d620f424084612dc6565b9050620186a081101561117857611cfe620186a082612de5565b5f805461ffff600160201b90910416815260076020526040812080549091906124e59063ffffffff620100008204811691600160301b900416612d40565b6124f0906001612c77565b63ffffffff1690506125028184612dc6565b825461251a919062010000900463ffffffff16612c77565b825463ffffffff60501b1916600160501b63ffffffff9283168102919091178085555f54604051929091049092168152600160201b90910461ffff16907f60c72bd9d422cae7b5d8d7177ce781e95c3bf9dca2e5d81e314774a135eceb659060200160405180910390a25f54604051600160201b90910461ffff1681527fb3af0d9275ea7fed993c7e01f640a1ab35d76c8cbc33385079cb38b616c18f0e9060200160405180910390a1505050565b5f805463ffffffff600160301b9182900481168352600a602090815260408085208690559354845161ffff600160201b8304168152939004909116908201527f7ae1b1a9c9aed6cbab49a9edec5233e16d3bdd873a163348d470c2bf639211f5910160405180910390a16001805460ff60c01b191690555f8054600160301b900463ffffffff1690600661265c83612c07565b91906101000a81548163ffffffff021916908363ffffffff1602179055505050565b803563ffffffff81168114612691575f80fd5b919050565b5f80604083850312156126a7575f80fd5b6126b08361267e565b946020939093013593505050565b634e487b7160e01b5f52604160045260245ffd5b5f80604083850312156126e3575f80fd5b8235915060208084013567ffffffffffffffff80821115612702575f80fd5b818601915086601f830112612715575f80fd5b813581811115612727576127276126be565b8060051b604051601f19603f8301168101818110858211171561274c5761274c6126be565b604052918252848201925083810185019189831115612769575f80fd5b938501935b828510156127875784358452938501939285019261276e565b8096505050505050509250929050565b5f602082840312156127a7575f80fd5b611cfe8261267e565b5f8083601f8401126127c0575f80fd5b50813567ffffffffffffffff8111156127d7575f80fd5b6020830191508360208260051b85010111156127f1575f80fd5b9250929050565b5f805f806040858703121561280b575f80fd5b843567ffffffffffffffff80821115612822575f80fd5b61282e888389016127b0565b90965094506020870135915080821115612846575f80fd5b50612853878288016127b0565b95989497509550505050565b80356001600160a01b0381168114612691575f80fd5b5f60208284031215612885575f80fd5b611cfe8261285f565b803561ffff81168114612691575f80fd5b5f805f606084860312156128b1575f80fd5b6128ba8461285f565b92506128c86020850161288e565b9150604084013590509250925092565b803560ff81168114612691575f80fd5b5f805f805f60a086880312156128fc575f80fd5b6129058661285f565b94506020860135935061291a604087016128d8565b94979396509394606081013594506080013592915050565b5f805f805f8060c08789031215612947575f80fd5b6129508761285f565b9550602087013594506040870135935061296c606088016128d8565b92506080870135915060a087013590509295509295509295565b5f8060408385031215612997575f80fd5b6129a08361285f565b91506129ae6020840161288e565b90509250929050565b5f602082840312156129c7575f80fd5b611cfe8261288e565b602080825282518282018190525f9190848201906040850190845b818110156114f157835163ffffffff16835292840192918401916001016129eb565b5f60208284031215612a1d575f80fd5b5035919050565b5f805f805f805f805f8060a08b8d031215612a3d575f80fd5b8a3567ffffffffffffffff80821115612a54575f80fd5b612a608e838f016127b0565b909c509a5060208d0135915080821115612a78575f80fd5b612a848e838f016127b0565b909a50985060408d0135915080821115612a9c575f80fd5b612aa88e838f016127b0565b909850965060608d0135915080821115612ac0575f80fd5b612acc8e838f016127b0565b909650945060808d0135915080821115612ae4575f80fd5b50612af18d828e016127b0565b915080935050809150509295989b9194979a5092959850565b5f5b83811015612b24578181015183820152602001612b0c565b50505f910152565b5f8151808452612b43816020860160208601612b0a565b601f01601f19169290920160200192915050565b602081525f611cfe6020830184612b2c565b5f805f60608486031215612b7b575f80fd5b612b848461285f565b95602085013595506040909401359392505050565b608081525f612bab6080830187612b2c565b8281036020840152612bbd8187612b2c565b604084019590955250506001600160a01b039190911660609091015292915050565b634e487b7160e01b5f52603260045260245ffd5b634e487b7160e01b5f52601160045260245ffd5b5f63ffffffff808316818103612c1f57612c1f612bf3565b6001019392505050565b6020808252602e908201527f4c75636b7942616c6c3a2063616c6c6572206973206e6f7420746865206f706560408201526d7261746f7220616464726573732160901b606082015260800190565b63ffffffff818116838216019080821115612c9457612c94612bf3565b5092915050565b8181038181111561117857611178612bf3565b5f61ffff808316818103612c1f57612c1f612bf3565b6020808252602b908201527f4c75636b7942616c6c3a2063616c6c6572206973206e6f7420746865206f776e60408201526a657220616464726573732160a81b606082015260800190565b5f60018201612d2057612d20612bf3565b5060010190565b60ff818116838216019081111561117857611178612bf3565b63ffffffff828116828216039080821115612c9457612c94612bf3565b5f60208284031215612d6d575f80fd5b611cfe826128d8565b5f63ffffffff821680612d8b57612d8b612bf3565b5f190192915050565b5f8251612da5818460208701612b0a565b9190910192915050565b5f60208284031215612dbf575f80fd5b5051919050565b5f82612de057634e487b7160e01b5f52601260045260245ffd5b500690565b8082018082111561117857611178612bf356fe52656c61792861646472657373206f776e65722c75696e7432353620646561646c696e652c75696e74323536206e6f6e636529a2646970667358221220eab1b85bd54a081625a83046fc49e228dd823967d2301d7f345c3923493f6a3664736f6c63430008140033454950373132446f6d61696e28737472696e67206e616d652c737472696e672076657273696f6e2c75696e7432353620636861696e49642c6164647265737320766572696679696e67436f6e747261637429",
    "sourcePath": "/Users/brian/Work/arena-seasons/contracts/LuckyBall.sol",
    "compiler": {
        "name": "solc",
        "version": "0.8.20+commit.a1b79de6"
    },
    "functionHashes": {
        "DOMAIN_SEPARATOR()": "3644e515",
        "ballCount()": "9ceaddc9",
        "ballGroups(uint256)": "b20aaaf5",
        "ballPosByRevealGroup(uint32,uint256)": "155152e6",
        "endSeason()": "3dcdb672",
        "getBallCode(uint32)": "ec42bc11",
        "getBallGroupPos(uint32)": "aca66cfe",
        "getBalls()": "df6fba1d",
        "getBalls(address,uint16)": "faacbbb4",
        "getBallsByRevealGroup(uint32)": "8090820f",
        "getCurrentBallGroupPos()": "0841ba30",
        "getCurrentRevealGroupId()": "9d3db7db",
        "getCurrentSeasonId()": "5e75a6c3",
        "getDomainInfo()": "f9523b21",
        "getEIP712Hash(address,uint256,uint256)": "ae95234c",
        "getOperator()": "e7f43c68",
        "getOwner()": "893d20e8",
        "getRelayMessageTypes()": "a529d3b0",
        "getRevealGroup(uint32)": "7c8b38ad",
        "getUserBallCount(address,uint16)": "6b8d0f3b",
        "isSeasonActive()": "ba732064",
        "issueBalls(address[],uint32[])": "2e23b27a",
        "lastRequestId()": "fc2a88c3",
        "newRevealPos(address)": "2ffb84dd",
        "nonces(address)": "7ecebe00",
        "ownerOf(uint32)": "23b7ec3b",
        "rawFulfillRandomWords(uint256,uint256[])": "1fe543e3",
        "relayRequestReveal(address,uint256,uint8,bytes32,bytes32)": "5f4f79bb",
        "relayRequestRevealBatch(address[],uint256[],uint8[],bytes32[],bytes32[])": "a4049325",
        "requestReveal()": "b07870b5",
        "requestRevealGroupSeed()": "d37431a6",
        "revealGroupSeeds(uint32)": "d5f9e1bc",
        "revealGroups(uint32)": "2939f5ab",
        "revealNeeded()": "060ed27f",
        "s_requests(uint256)": "a168fa89",
        "seasons(uint16)": "6ebaeda9",
        "setOperator(address)": "b3ab15fb",
        "startSeason()": "952a9633",
        "transferOwner(address)": "4fb2e45d",
        "userBallGroups(address,uint16,uint256)": "5153157a",
        "verifySig(address,uint256,uint256,uint8,bytes32,bytes32)": "6999f376"
    },
    "gasEstimates": {
        "creation": {
            "codeDepositCost": "2374600",
            "executionCost": "infinite",
            "totalCost": "infinite"
        },
        "external": {
            "DOMAIN_SEPARATOR()": "2406",
            "ballCount()": "2419",
            "ballGroups(uint256)": "4709",
            "ballPosByRevealGroup(uint32,uint256)": "6493",
            "endSeason()": "infinite",
            "getBallCode(uint32)": "infinite",
            "getBallGroupPos(uint32)": "infinite",
            "getBalls()": "infinite",
            "getBalls(address,uint16)": "infinite",
            "getBallsByRevealGroup(uint32)": "infinite",
            "getCurrentBallGroupPos()": "2358",
            "getCurrentRevealGroupId()": "2434",
            "getCurrentSeasonId()": "2400",
            "getDomainInfo()": "infinite",
            "getEIP712Hash(address,uint256,uint256)": "infinite",
            "getOperator()": "2396",
            "getOwner()": "2392",
            "getRelayMessageTypes()": "infinite",
            "getRevealGroup(uint32)": "infinite",
            "getUserBallCount(address,uint16)": "infinite",
            "isSeasonActive()": "6762",
            "issueBalls(address[],uint32[])": "infinite",
            "lastRequestId()": "2448",
            "newRevealPos(address)": "2621",
            "nonces(address)": "2645",
            "ownerOf(uint32)": "infinite",
            "rawFulfillRandomWords(uint256,uint256[])": "infinite",
            "relayRequestReveal(address,uint256,uint8,bytes32,bytes32)": "infinite",
            "relayRequestRevealBatch(address[],uint256[],uint8[],bytes32[],bytes32[])": "infinite",
            "requestReveal()": "infinite",
            "requestRevealGroupSeed()": "infinite",
            "revealGroupSeeds(uint32)": "2637",
            "revealGroups(uint32)": "2565",
            "revealNeeded()": "2362",
            "s_requests(uint256)": "4764",
            "seasons(uint16)": "2789",
            "setOperator(address)": "27857",
            "startSeason()": "infinite",
            "transferOwner(address)": "27832",
            "userBallGroups(address,uint16,uint256)": "infinite",
            "verifySig(address,uint256,uint256,uint8,bytes32,bytes32)": "infinite"
        },
        "internal": {
            "_requestReveal(address)": "infinite",
            "_setDomainSeparator()": "infinite",
            "extractCode(uint256)": "199",
            "fulfillRandomWords(uint256,uint256[] memory)": "infinite",
            "generateWinningCode()": "infinite",
            "requestRandomSeed(bool)": "infinite",
            "setRevealGroupSeed(uint256)": "infinite",
            "setSeasonWinner(uint256)": "infinite"
        }
    }
}